{
  "contractName": "EtherGame",
  "abi": [
    {
      "constant": true,
      "inputs": [],
      "name": "finalMileStone",
      "outputs": [
        {
          "internalType": "uint256",
          "name": "",
          "type": "uint256"
        }
      ],
      "payable": false,
      "stateMutability": "view",
      "type": "function"
    },
    {
      "constant": true,
      "inputs": [],
      "name": "payoutMileStone2",
      "outputs": [
        {
          "internalType": "uint256",
          "name": "",
          "type": "uint256"
        }
      ],
      "payable": false,
      "stateMutability": "view",
      "type": "function"
    },
    {
      "constant": true,
      "inputs": [],
      "name": "payoutMileStone1",
      "outputs": [
        {
          "internalType": "uint256",
          "name": "",
          "type": "uint256"
        }
      ],
      "payable": false,
      "stateMutability": "view",
      "type": "function"
    },
    {
      "constant": true,
      "inputs": [],
      "name": "finalReward",
      "outputs": [
        {
          "internalType": "uint256",
          "name": "",
          "type": "uint256"
        }
      ],
      "payable": false,
      "stateMutability": "view",
      "type": "function"
    },
    {
      "constant": true,
      "inputs": [],
      "name": "mileStone1Reward",
      "outputs": [
        {
          "internalType": "uint256",
          "name": "",
          "type": "uint256"
        }
      ],
      "payable": false,
      "stateMutability": "view",
      "type": "function"
    },
    {
      "constant": true,
      "inputs": [],
      "name": "mileStone2Reward",
      "outputs": [
        {
          "internalType": "uint256",
          "name": "",
          "type": "uint256"
        }
      ],
      "payable": false,
      "stateMutability": "view",
      "type": "function"
    },
    {
      "constant": false,
      "inputs": [],
      "name": "play",
      "outputs": [],
      "payable": true,
      "stateMutability": "payable",
      "type": "function"
    },
    {
      "constant": false,
      "inputs": [],
      "name": "claimReward",
      "outputs": [],
      "payable": false,
      "stateMutability": "nonpayable",
      "type": "function"
    }
  ],
  "bytecode": "0x60806040526729a2241af62c0000600055671bc16d674ec80000600155674563918244f400006002556729a2241af62c0000600355678ac7230489e80000600455674563918244f4000060055534801561005857600080fd5b5061049c806100686000396000f3fe60806040526004361061007b5760003560e01c806382d4a75c1161004e57806382d4a75c1461012c5780638c6f37591461015757806393e84cd914610182578063b88a802f1461018c5761007b565b806316a1883a146100805780631c95cfc1146100ab57806333c2a9f8146100d65780636e1d553714610101575b600080fd5b34801561008c57600080fd5b506100956101a3565b6040518082815260200191505060405180910390f35b3480156100b757600080fd5b506100c06101a9565b6040518082815260200191505060405180910390f35b3480156100e257600080fd5b506100eb6101af565b6040518082815260200191505060405180910390f35b34801561010d57600080fd5b506101166101b5565b6040518082815260200191505060405180910390f35b34801561013857600080fd5b506101416101bb565b6040518082815260200191505060405180910390f35b34801561016357600080fd5b5061016c6101c1565b6040518082815260200191505060405180910390f35b61018a6101c7565b005b34801561019857600080fd5b506101a1610323565b005b60045481565b60025481565b60005481565b60055481565b60015481565b60035481565b6706f05b59d3b2000034146101db57600080fd5b6000343073ffffffffffffffffffffffffffffffffffffffff163101905060045481111561020857600080fd5b60005481141561026657600154600660003373ffffffffffffffffffffffffffffffffffffffff1673ffffffffffffffffffffffffffffffffffffffff16815260200190815260200160002060008282540192505081905550610320565b6002548114156102c457600354600660003373ffffffffffffffffffffffffffffffffffffffff1673ffffffffffffffffffffffffffffffffffffffff1681526020019081526020016000206000828254019250508190555061031f565b60045481141561031e57600554600660003373ffffffffffffffffffffffffffffffffffffffff1673ffffffffffffffffffffffffffffffffffffffff168152602001908152602001600020600082825401925050819055505b5b5b50565b6004543073ffffffffffffffffffffffffffffffffffffffff16311461034857600080fd5b6000600660003373ffffffffffffffffffffffffffffffffffffffff1673ffffffffffffffffffffffffffffffffffffffff168152602001908152602001600020541161039457600080fd5b6000600660003373ffffffffffffffffffffffffffffffffffffffff1673ffffffffffffffffffffffffffffffffffffffff1681526020019081526020016000205490506000600660003373ffffffffffffffffffffffffffffffffffffffff1673ffffffffffffffffffffffffffffffffffffffff168152602001908152602001600020819055503373ffffffffffffffffffffffffffffffffffffffff166108fc829081150290604051600060405180830381858888f19350505050158015610463573d6000803e3d6000fd5b505056fea265627a7a72315820731e5ef5e2635f5139ba206019e3000d0bc50278aa0e2c1d750a778b1b863f2564736f6c634300050b0032",
  "source": "pragma solidity 0.5.11;\n\ncontract EtherGame {\n\n    uint public payoutMileStone1 = 3 ether;\n    uint public mileStone1Reward = 2 ether;\n    uint public payoutMileStone2 = 5 ether;\n    uint public mileStone2Reward = 3 ether;\n    uint public finalMileStone = 10 ether;\n    uint public finalReward = 5 ether;\n\n    mapping(address => uint) redeemableEther;\n    // Users pay 0.5 ether. At specific milestones, credit their accounts.\n    function play() public payable {\n        require(msg.value == 0.5 ether); // each play is 0.5 ether\n        uint currentBalance = address(this).balance + msg.value;\n        // ensure no players after the game has finished\n        require(currentBalance <= finalMileStone);\n        // if at a milestone, credit the player's account\n        if (currentBalance == payoutMileStone1) {\n            redeemableEther[msg.sender] += mileStone1Reward;\n        }\n        else if (currentBalance == payoutMileStone2) {\n            redeemableEther[msg.sender] += mileStone2Reward;\n        }\n        else if (currentBalance == finalMileStone ) {\n            redeemableEther[msg.sender] += finalReward;\n        }\n        return;\n    }\n\n    function claimReward() public {\n        // ensure the game is complete\n        require(address(this).balance == finalMileStone);\n        // ensure there is a reward to give\n        require(redeemableEther[msg.sender] > 0);\n        uint transferValue = redeemableEther[msg.sender];\n        redeemableEther[msg.sender] = 0;\n        msg.sender.transfer(transferValue);\n    }\n }",
  "sourcePath": "/Users/leanderjehl/repos/blockchain/2020/course-info/solidity/security/contracts/EtherGame.sol",
  "compiler": {
    "name": "solc",
    "version": "0.5.11+commit.c082d0b4.Emscripten.clang"
  },
  "schemaVersion": "3.3.1",
  "updatedAt": "2020-10-22T06:44:01.135Z",
  "devdoc": {
    "methods": {}
  },
  "userdoc": {
    "methods": {}
  }
}