{
  "contractName": "TimeLock",
  "abi": [
    {
      "constant": true,
      "inputs": [
        {
          "internalType": "address",
          "name": "",
          "type": "address"
        }
      ],
      "name": "balances",
      "outputs": [
        {
          "internalType": "uint256",
          "name": "",
          "type": "uint256"
        }
      ],
      "payable": false,
      "stateMutability": "view",
      "type": "function"
    },
    {
      "constant": true,
      "inputs": [
        {
          "internalType": "address",
          "name": "",
          "type": "address"
        }
      ],
      "name": "lockTime",
      "outputs": [
        {
          "internalType": "uint256",
          "name": "",
          "type": "uint256"
        }
      ],
      "payable": false,
      "stateMutability": "view",
      "type": "function"
    },
    {
      "constant": false,
      "inputs": [],
      "name": "deposit",
      "outputs": [],
      "payable": true,
      "stateMutability": "payable",
      "type": "function"
    },
    {
      "constant": false,
      "inputs": [
        {
          "internalType": "uint256",
          "name": "_secondsToIncrease",
          "type": "uint256"
        }
      ],
      "name": "increaseLockTime",
      "outputs": [],
      "payable": false,
      "stateMutability": "nonpayable",
      "type": "function"
    },
    {
      "constant": false,
      "inputs": [],
      "name": "withdraw",
      "outputs": [],
      "payable": false,
      "stateMutability": "nonpayable",
      "type": "function"
    }
  ],
  "bytecode": "0x608060405234801561001057600080fd5b506104b5806100206000396000f3fe60806040526004361061004a5760003560e01c806327e235e31461004f5780633ccfd60b146100b457806379af55e4146100cb578063a4beda6314610106578063d0e30db01461016b575b600080fd5b34801561005b57600080fd5b5061009e6004803603602081101561007257600080fd5b81019080803573ffffffffffffffffffffffffffffffffffffffff169060200190929190505050610175565b6040518082815260200191505060405180910390f35b3480156100c057600080fd5b506100c961018d565b005b3480156100d757600080fd5b50610104600480360360208110156100ee57600080fd5b81019080803590602001909291905050506102f4565b005b34801561011257600080fd5b506101556004803603602081101561012957600080fd5b81019080803573ffffffffffffffffffffffffffffffffffffffff1690602001909291905050506103d1565b6040518082815260200191505060405180910390f35b6101736103e9565b005b60006020528060005260406000206000915090505481565b60008060003373ffffffffffffffffffffffffffffffffffffffff1673ffffffffffffffffffffffffffffffffffffffff16815260200190815260200160002054116101d857600080fd5b600160003373ffffffffffffffffffffffffffffffffffffffff1673ffffffffffffffffffffffffffffffffffffffff16815260200190815260200160002054421161022357600080fd5b60008060003373ffffffffffffffffffffffffffffffffffffffff1673ffffffffffffffffffffffffffffffffffffffff16815260200190815260200160002054905060008060003373ffffffffffffffffffffffffffffffffffffffff1673ffffffffffffffffffffffffffffffffffffffff168152602001908152602001600020819055503373ffffffffffffffffffffffffffffffffffffffff166108fc829081150290604051600060405180830381858888f193505050501580156102f0573d6000803e3d6000fd5b5050565b600160003373ffffffffffffffffffffffffffffffffffffffff1673ffffffffffffffffffffffffffffffffffffffff1681526020019081526020016000205481600160003373ffffffffffffffffffffffffffffffffffffffff1673ffffffffffffffffffffffffffffffffffffffff1681526020019081526020016000205401101561038157600080fd5b80600160003373ffffffffffffffffffffffffffffffffffffffff1673ffffffffffffffffffffffffffffffffffffffff1681526020019081526020016000206000828254019250508190555050565b60016020528060005260406000206000915090505481565b346000803373ffffffffffffffffffffffffffffffffffffffff1673ffffffffffffffffffffffffffffffffffffffff1681526020019081526020016000206000828254019250508190555062093a804201600160003373ffffffffffffffffffffffffffffffffffffffff1673ffffffffffffffffffffffffffffffffffffffff1681526020019081526020016000208190555056fea265627a7a7231582015d7285a0f4f61e9afc323092d0f2bbd2733e3af0e1b9c22658dde456774853264736f6c634300050b0032",
  "source": "pragma solidity 0.5.11;\n\ncontract TimeLock {\n\n    mapping(address => uint) public balances;\n    mapping(address => uint) public lockTime;\n\n    function deposit() public payable {\n        balances[msg.sender] += msg.value;\n        lockTime[msg.sender] = now + 1 weeks;\n    }\n\n    function increaseLockTime(uint _secondsToIncrease) \n        public {\n        require(lockTime[msg.sender] + _secondsToIncrease >= lockTime[msg.sender]);\n        lockTime[msg.sender] += _secondsToIncrease;\n    }\n\n    function withdraw() public {\n        require(balances[msg.sender] > 0);\n        require(now > lockTime[msg.sender]);\n        uint balance = balances[msg.sender];\n        balances[msg.sender] = 0;\n        msg.sender.transfer(balance);\n    }\n}",
  "sourcePath": "/Users/leanderjehl/repos/blockchain/hacking/security/contracts/TimeLock.sol",
  "compiler": {
    "name": "solc",
    "version": "0.5.11+commit.c082d0b4.Emscripten.clang"
  },
  "schemaVersion": "3.3.1",
  "updatedAt": "2020-10-22T06:44:01.144Z",
  "devdoc": {
    "methods": {}
  },
  "userdoc": {
    "methods": {}
  }
}